:020000040800F2
:100000001811002065010008230B0008F9050008FD
:10001000210B00084103000827140008000000001D
:1000200000000000000000000000000007110008B0
:100030004303000800000000FD0B00082111000828
:100040007B0100087B0100087B010008E10F00082C
:100050007B0100087B010008650300087B010008A4
:100060007B0100087B0100087B0100087B01000880
:100070007B0100087B0100087B0100087B01000870
:100080007B0100087B0100087B0100087B01000860
:100090007B0100087B0100087B0100087B01000850
:1000A0007B010008B11100087B0100087B010008FA
:1000B0007B0100087B0100087B0100087B01000830
:1000C0007B0100087B0100087B0100087B01000820
:1000D0007B0100087B0100087B0100087B01000810
:1000E0007B0100087B0100087B0100080000000084
:1000F0000000000000000000000000000000000000
:1001000000000000000000007B0100087B010008E7
:100110007B0100087B0100087B0100087B010008CF
:100120007B0100087B0100087B0100087B010008BF
:100130007B01000845030008470300087B01000815
:100140007B0100087B0100087B010008FB0B000815
:10015000DFF80CD000F014F8004800478D160008B6
:100160001811002005480047FEE7FEE7FEE7FEE71E
:10017000FEE7FEE7FEE7FEE7FEE7FEE751010008C7
:10018000064C074D06E0E06840F0010394E80700E4
:1001900098471034AC42F6D3FFF7DEFF8C2F0008EF
:1001A000AC2F00080029816802D041F0010101E074
:1001B00021F0010181607047C06C80B27047024637
:1001C000002012680A4200D001207047014600203A
:1001D0008968090700D501207047000010B5426802
:1001E0000E4B0C791A400B6842EA04221343436019
:1001F00083680B4A1340D1E9024222434C7943EA17
:1002000044031A438260C26A097C22F47002491EC8
:10021000C9B242EA0151C16210BD0000FFFEF0FF09
:10022000FDF7F1FF70B5072409290AD9C568A1F1C6
:100230000A0606EB4606B440A543B3401D43C5601D
:1002400007E0056901EB4106B440A543B3401D43F7
:1002500005611F23072A09D2446B521E02EB82025A
:1002600093409C4391400C43446370BD0D2A09D2D6
:10027000046BD21F02EB820293409C4391400C43DB
:10028000046370BDC46A0D3A02EB820293409C4342
:1002900091400C43C46270BD816841F008018160E7
:1002A00070470029816802D041F4A00101E021F4E7
:1002B000A00181607047816841F00401816070474E
:1002C00010B5012186B0480200F0BCFC1020ADF84A
:1002D000140000248DF8174005A9174800F0F6F81F
:1002E0004FF46021CDE9021400948DF80440012000
:1002F000124C8DF805008DF8100069462046FFF776
:100300006DFF022301220E212046FFF78BFF012102
:100310002046FFF747FF2046FFF7BEFF2046FFF7C6
:1003200055FF0028FAD12046FFF7C5FF01212046DE
:10033000FFF7B7FF06B010BD0010014000240140D8
:10034000FEE7704770477047044951F82010CA68AB
:10035000034B33F810004240CA6070475C00002035
:10036000981C000870B5012000F026F8002817D06E
:100370000C4D4FF400442146284600F01BF9C0F113
:100380000100C2B22146284600F01BF90648006A67
:1003900008B901F0CDFBBDE87040012000F006B8BF
:1003A00070BD0000001801400400002001490860F1
:1003B0007047000014040140064A014600201268FC
:1003C000044B0A4014331B680B4202D0002A00D0B1
:1003D000012070470004014030B51A498379026852
:1003E00053B30B6893430B600A1D13680468A3435F
:1003F000136002790A441368046823431360114AA6
:10040000083213680468A3431360131D1C68056851
:10041000AC431C604479102C05D021440A68006864
:1004200002430A6030BD11680468214311601968F5
:1004300000680143196030BD0079084401689143A8
:10044000016030BD000401401CB50121084600F0E8
:10045000F9FB0021084600F025F800218DF8041072
:10046000012008218DF8051000908DF806006846DF
:10047000FFF7B2FF1CBD000004490A6822F0100219
:100480000A600A6802430A607047000000200240C8
:10049000034A116801F03801014311607047000000
:1004A0000020024010B58A0721F003040649130F0B
:1004B00021440F228C689A4094438C608A6898404B
:1004C00002438A6010BD000000000140F0B5CA7808
:1004D000002502F00F03D20601D58A7813430C7869
:1004E0004FF00F0E0122ECB1D0F800400F8802FA55
:1004F00005F63740B74211D14FEA850C0EFA0CF7DA
:1005000024EA070703FA0CF43C43CF78282F02D0E3
:10051000482F02D002E0466100E006616D1C082D04
:10052000E4D304600C88FF2C1ED944685FF00006F9
:1005300006F1080702FA07F50F882F40AF420FD1E6
:100540004FEA860C0EFA0CF7BC4303FA0CF73C4357
:10055000CF78282F00D14561CF78482F00D1056191
:10056000761C082EE4D34460F0BD0000F0B5104DB9
:100570006A68440D260184B2C0F30157B440C0F349
:100580000343032F05D0C0020AD5032098408243BD
:1005900007E0686822F0706320F07060686002E035
:1005A000A24342F0706301B123436B60F0BD0000D1
:1005B0000000014002460020D2680A4200D001201B
:1005C00070470AB1016170474161704708B5012168
:1005D000542000F037FB0120ADF8000003208DF817
:1005E000020004208DF8030069460248FFF76EFF01
:1005F00008BD000000080140FEE7000010B50446F9
:1006000000224FF480710748FFF7DBFF2146064CBC
:10061000204600F05AFD8021204600F04FFD0028C2
:10062000F9D110BD00100140003C004070B50646F5
:10063000002440F23F11204600F0E2F800F018FAE2
:100640004FF49635304600F0F9F9641CAC42F9D30A
:10065000BDE87040012211020148FFF7B2BF00005F
:1006600000100140203AD2B2034B02EB420203EBEE
:10067000021200F01BB800002C1D00082DE9F0410B
:100680000E460746002540F23F1407E02146384653
:10069000FFF7E8FF103C761CA4B26D1C3278002AEC
:1006A00001D0142DF2D3BDE8F08100002DE9F74F01
:1006B000914604460026019900F0A2F8DFF8548024
:1006C000DFF854B001274FF4807A00BF00F0D0F972
:1006D0005FF0000539F8160007FA05F108424046B8
:1006E00015D0008800F0AAF96D1C102DF2D301225C
:1006F00051465846FFF765FF641CE4B22046019955
:1007000000F07EF8761C182EE0D3BDE8FE8F4088FE
:10071000E8E70000980000200010014038B50121F2
:10072000302000F08FFA4FF48070ADF80000032401
:100730008DF8024010258DF8035069460748FFF7F1
:10074000C5FE8020ADF800008DF802408DF8035002
:1007500069460348FFF7BAFE38BD000000100140AB
:100760000014014010B586B00121112000F06AFA92
:1007700001211C48FFF7FAFE0121C80300F04AFAE4
:100780004FF4E050ADF8140003208DF81600182047
:100790008DF8170005A91448FFF798FE134C204662
:1007A00000F062FC0021ADF800104FF48270ADF84B
:1007B0000200ADF804100220ADF806000120ADF8EB
:1007C00008004002ADF80C10ADF80A00ADF80E10AC
:1007D0006946204600F07BFC0121204600F03AFCEF
:1007E00006B010BD0010200000100140003C004089
:1007F00001B5BDF800000149488008BD98000020FF
:1008000010B50C460146202000F03CF92146BDE819
:100810001040212000F036B901B5BDF800000149B3
:10082000088008BD9800002010B5FFF777FF01226F
:1008300080218148FFF7C5FEFFF794FF052000F0F7
:1008400041FE4FF40041E52000F01CF90121002099
:1008500000F018F94FF48071012000F013F94FF403
:10086000E061022000F00EF941F23001032000F0B7
:1008700009F90021042000F005F940F202210820C6
:1008800000F000F90021092000F0FCF800210A2006
:1008900000F0F8F800210C2000F0F4F800210D2001
:1008A00000F0F0F800210F2000F0ECF800211020FB
:1008B00000F0E8F80021112000F0E4F800211220F7
:1008C00000F0E0F80021132000F0DCF8142000F024
:1008D000F9FD41F2B071102000F0D4F840F2371168
:1008E000112000F0CFF8052000F0ECFD40F23911A6
:1008F000122000F0C7F8052000F0E4FD4FF4E851A5
:10090000132000F0BFF81321292000F0BBF80520C8
:1009100000F0D8FD0021202000F0B4F800212120B3
:1009200000F0B0F80621302000F0ACF840F20111E0
:10093000312000F0A7F80321322000F0A3F84FF493
:100940008371352000F09EF840F60231362000F029
:1009500099F840F20231372000F094F840F2077124
:10096000382000F08FF80721392000F08BF84FF481
:10097000C0613C2000F086F840F20B213D2000F0E1
:1009800081F80021502000F07DF8EF21512000F087
:1009900079F80021522000F075F840F23F11532001
:1009A00000F070F84FF42741602000F06BF801214F
:1009B000612000F067F800216A2000F063F8002150
:1009C000802000F05FF80021812000F05BF800211A
:1009D000822000F057F80021832000F053F8002116
:1009E000842000F04FF80021852000F04BF8102102
:1009F000902000F047F80021922000F043F80321F6
:100A0000932000F03FF84FF48871952000F03AF8F9
:100A10000021972000F036F80021982000F032F8ED
:100A200041F21801032000F02DF8BDE8104040F21B
:100A30007311072000F026B80014014070B50B4D6B
:100A40000446010A284600F040FB8021284600F0B9
:100A500035FB0028F9D1E1B2284600F036FB8021B1
:100A6000284600F02BFB0028F9D170BD003C004067
:100A700010B5222000F02EF8BDE810407220FFF7DC
:100A8000BDBD000070B50C4600F024F87220FFF7E1
:100A9000B5FD0E4D210A284600F017FB802128469F
:100AA00000F00CFB0028F9D1E1B2284600F00DFB64
:100AB0008021284600F002FB0028F9D1BDE87040F3
:100AC000012211020248FFF77CBD0000003C0040FB
:100AD0000010014070B505467020FFF78FFD0E4CE9
:100AE0000021204600F0F1FA8021204600F0E6FACD
:100AF0000028F9D12946204600F0E7FA8021204657
:100B000000F0DCFA0028F9D1BDE8704001221102A2
:100B10000248FFF756BD0000003C004000100140B5
:100B2000FEE77047F0B50F21C478027801234FF03B
:100B3000E026DCB1124C2468457804F4E064C4F586
:100B4000E064240AC4F10407E1408478BD400C400D
:100B50002C4321010B4C1155007800F01F018B40F4
:100B6000400906EB8000C0F80031F0BD02F01F0024
:100B70008340500906EB8000C0F88031F0BD0000D2
:100B80000CED00E000E400E002490843024908607F
:100B9000704700000000FA050CED00E0024A114029
:100BA000014302480160704780FFFF1F08ED00E02D
:100BB00038B500214FF00060FFF7F0FF4FF4E06020
:100BC000FFF7E2FF06208DF8000001248DF80140B8
:100BD0008DF802408DF803406846FFF7A3FFFF2021
:100BE0008DF8000000208DF801008DF802008DF8CE
:100BF00003406846FFF796FF38BD70477047000016
:100C0000034A516821F4404101435160704700009C
:100C100000100240044A0029D16901D0014300E0DC
:100C20008143D1617047000000100240044A00294E
:100C3000116901D0014300E0814311617047000058
:100C400000100240044A0029916901D0014300E0EC
:100C5000814391617047000000100240044A00295E
:100C6000D16801D0014300E08143D16070470000AA
:100C7000001002400F48016841F001010160416825
:100C80000D4A1140416001680C4A11400160016841
:100C900021F480210160416821F4FE014160016876
:100CA00021F0A05101604FF47F0181600021C162F9
:100CB00070470000001002400000FFF0FFFFF6FE4A
:100CC000F0B52C4A51682C4B11F00C014FF00F0578
:100CD00004D02A4C042903D0082903D0036028E05B
:100CE000046026E05168536805EA914103F48033BB
:100CF0000D2901D0891C00E00621BBB1D36A13F491
:100D0000803FD36A03F00F0303F101030AD0D66AD0
:100D1000D76AC6F30316761CB4FBF6F4C7F30327B1
:100D2000BF1C7C43B4FBF3F34B43D7E7144B59434D
:100D300001605168134C05EA1111635C0168D940E8
:100D400041605368072505EA1323E35C21FA03F3A6
:100D50008360536805EAD323E35CD940C1605268DD
:100D6000032303EA9232231F9A5CB1FBF2F1016183
:100D7000F0BD00000010024000127A0040787D01B2
:100D800000093D004C00002002460020530909499B
:100D9000012B0BD0022B0BD0D1F8241002F01F0234
:100DA000012393400B4200D0012070470968F5E70A
:100DB000096AF3E7001002400248406800F00C00A6
:100DC0007047000000100240034A516821F0F00112
:100DD0000143516070470000001002400B490A684F
:100DE00022F480320A600A6822F480220A60B0F598
:100DF000803F07D0B0F5802F03D1086840F4A020D1
:100E000008607047086840F48030F9E7001002403D
:100E1000034A516821F4E0610143516070470000CA
:100E20000010024003494A6822F4605242EAC000BE
:100E30004860704700100240014988667047000012
:100E400000004242034AD16A21F470610143D16239
:100E5000704700000010024001490866704700001A
:100E600000004242034A5368084323F474131843B2
:100E70005060704700100240044B10B5DA6A044C11
:100E8000084322401043D86210BD00000010024009
:100E9000F0FFFEFF034AD16A21F0F0010143D16265
:100EA0007047000000100240034A516821F003011E
:100EB00001435160704700000010024018B5002047
:100EC0004FF4A06400903120FFF75EFF0099491CA9
:100ED0000091A14201D00028F5D03120FFF754FF46
:100EE000002800D0012018BD10B5FFF7C3FE4FF455
:100EF00080342046FFF772FFFFF7E0FF012800D0A3
:100F0000FEE71020FFF7B8FA0220FFF7C1FA002031
:100F1000FFF75AFF0020FFF785FF4FF48060FFF7CF
:100F200077FF4FF40040FFF76BFE4020FFF7B2FF62
:100F30004FF4C060FFF786FF0120FFF77DFF3B20E5
:100F4000FFF722FF0028FAD004212046FFF794FF84
:100F50004FF4E0112046FFF785FF0120FFF77CFFEB
:100F60003920FFF711FF0028FAD00220FFF79CFF7D
:100F7000FFF722FF0828FBD110BD000002490A88B4
:100F800082430A807047000004280040024801881C
:100F900041F0100101807047042800400248018898
:100FA00021F01001018070470428004003480088A8
:100FB0000249091F098840EA014070471C28004087
:100FC00006490988C2B21140044A121F128802421F
:100FD00002D009B10120704700207047042800406A
:100FE00010B50120FFF7ECFF002816D00120FFF715
:100FF000C5FF0020FFF7A8F908490120086000F0AC
:1010000021F8FFF7D3FF0649884206D1002000F0FF
:1010100009F8BDE8104000F015B810BD0000002030
:101020008051010000B50246FFF7B0FF0449100CE3
:101030000880081D02805DF804EBFFF7AFBF0000D9
:1010400018280040024801888906FCD57047000036
:10105000042800400029018802D041F0400101E04D
:1010600021F0400101807047114910B588420AD132
:10107000841401212046FFF7F1FD2046BDE8104011
:101080000021FFF7EBBD0B49884202D10121041476
:1010900004E0094988420AD10121C4132046FFF720
:1010A000C5FD2046BDE810400021FFF7BFBD10BDC3
:1010B0000030014000380040003C00400246002063
:1010C00012890A4200D0012070478181704730B5F3
:1010D00002884C8802F441530A88CD8822438C88C8
:1010E0002C4322430C8922434C8922438C8922437E
:1010F000CC8922431A430280828B22F400628283CD
:10110000098A018230BD70474FF0E0210428086948
:1011100003D020F004000861704740F00400FAE7B3
:101120001848816A0029416801D1491C41604FF487
:101130007A7391FBF3F203FB1211B9B900214160FC
:101140008269521C82613C2A01DA426903E08161B2
:101150004269521C42613C2A01DA026903E04161A2
:101160000269521C0261182A00DB01618168491C76
:10117000816091FBF3F003FB1010002801D100F017
:101180004DBA70470400002010B50420FFF7BCFFE3
:101190004FF0E02004494161044AF0211170002120
:1011A00081610721016110BD3E19010023ED00E0BE
:1011B0000348C168491CC1600121024800F028B8F9
:1011C00004000020002C01403EB50121C802FFF7B9
:1011D00039FD4720ADF80000002040F2E731ADF8BE
:1011E00004100A4CADF80200ADF806008DF80800B6
:1011F0006946204600F022F801221146204600F000
:1012000015F80121204600F006F83EBD002C0140F3
:10121000C943018270470029018802D041F00101D1
:1012200002E040F2FE32114001807047002A8289BC
:1012300001D00A4300E08A4382817047028802F0AD
:101240008F020280CA884B881A4303881A4302809F
:101250008A8882850A880285054A904202D0054A1A
:10126000904201D1097A01860121818270470000F4
:10127000002C0140003401400029818902D041F452
:10128000005101E021F400518181704702460020A5
:1012900012880A4200D001207047000030B5044691
:1012A000008A85B00D464CF6FF710840E98801437D
:1012B0002182A1894EF6F3100140A8882A891043A3
:1012C0006A890A431043A081A08A4FF6FF41084073
:1012D000A9890143A1826846FFF7F2FC11488442C4
:1012E00001D1039800E00298642200EBC00101EBF9
:1012F000001029686FF018058900B0FBF1F0B0FB11
:10130000F2F109010B096B4300EB8300322303EB7D
:101310000010B0FBF2F000F00F000843208105B090
:1013200030BD0000003801402DE9F8430424402579
:1013300018260327884601282CD0022828D101210D
:101340002120FFF77FFC01210820FFF70FF9012181
:101350004804FFF75FFC2020ADF800008DF8036023
:101360001E4E8DF8027069463046FFF7AFF8ADF8B3
:1013700000508DF8034069463046FFF7A7F8184C37
:1013800041462046FFF78AFF01212046FFF774FF00
:10139000BDE8F88301210920FFF754FC0121042056
:1013A000FFF7E4F801218803FFF74CFCADF800508B
:1013B0000C4D8DF803608DF8027069462846FFF7E2
:1013C00085F88020ADF800008DF803406946284676
:1013D000FFF77CF84146044CD3E7000000140140BD
:1013E00000440040000C0140003801408088C0F3F8
:1013F00008007047C1F30801818070471FB54FF4A2
:10140000E13000900020ADF80400ADF80600ADF822
:101410000800ADF80C000C20ADF80A006946022067
:10142000FFF782FF1FBDFEE702E008C8121F08C1D8
:10143000002AFAD170477047002001E001C1121F55
:10144000002AFBD170470000F0B585B000206D4642
:1014500020242C54401C1428FBDB194F4FF47846F1
:10146000388850280FD20020014638626C54491C3D
:101470001429FBDB3046FFF7CFF96946A820FFF7B8
:10148000FDF805B0F0BD0721022000F07DF9F869F4
:1014900001280FD041208DF806004C208DF8070060
:1014A00045208DF8080052208DF8090054208DF851
:1014B0000A00DFE700202C54401C0B28FBDBD9E797
:1014C0000400002001B581B0044901984843009010
:1014D000002801D0401EFAE70CBD0000A0860100E4
:1014E00030B585B007220320802369460B54401C89
:1014F00080B21128FAD30F4C2088B0FBF2F2002002
:101500007F2303E00D18401CEB7080B29042F9D3AA
:101510004FF4FC60FFF780F92088502803D94FF47E
:101520007840FFF779F969467820FFF7A7F805B00A
:1015300030BD00000400002010B586B000206946D0
:1015400020220A54401C1428FBDB13486423018822
:10155000B1FBF3F000F1300403FB10130A20B3FBDE
:10156000F0F38DF8084030338DF80930B1FBF0F31B
:1015700000FB131030308DF80A0043208DF80C006A
:101580008DF80B204FF61F00FFF746F969464820FB
:10159000FFF774F806B010BD0400002030B585B028
:1015A0000020694620220A54401C1428FBDB1A4AFA
:1015B0000A20136993FBF0F101F130048DF8064025
:1015C00000FB113130313A248DF807108DF80840B6
:1015D000536993FBF0F101F1300500FB11318DF8F7
:1015E000095030318DF80A108DF80B40926992FB4A
:1015F000F0F100FB112001F130038DF80C30303098
:101600008DF80D000020FFF707F969461820FFF755
:1016100035F805B030BD00000400002010B586B0DC
:1016200000206A4620211154401C1428FBDB164C74
:101630004FF478402288502A01D9226A62B18DF88D
:101640000A100521C4F82410FFF7E6F86946C02007
:10165000FFF714F806B010BD616A002906DB01F13E
:1016600030028DF80A20491E6162EDD5FFF7D4F8EB
:101670006946C020FFF702F80120206207210220FE
:1016800000F082F8FAE70000040000200024FFF7D1
:101690002BFCFEF79BFFFFF7B1FEFFF789FAFEF781
:1016A000D3FEFEF70DFEFFF7BFF8FFF78DFDFFF746
:1016B0006BFD47F6FF752846FEF7B8FF2846FFF793
:1016C00097F84FF47840FFF7A7F81648002100BFBD
:1016D00020F81410641C3C2CFADB13A000F072F804
:1016E00014A000F06FF815A000F06CF81DA000F039
:1016F00069F80721022000F047F80721022000F0D6
:1017000043F80721022000F03FF800BF00F08EFAF6
:10171000FFF744FFFFF710FFFFF7E2FE00F066F867
:10172000F4E700009C0000200957656C636F6D654D
:101730000A0D0000090920746F0A0D00436F6D70D7
:101740007574657220496E746572666163696E674F
:10175000203A2041737369676E6D656E740A0D0AD5
:101760000D0000005072657373205320746F206564
:101770006E74657220436C6F636B2073657474695B
:101780006E670A0D0000000070B50C46012807D0F6
:101790000A4D40212846FFF779FD0028F9D006E0E0
:1017A000074D40212846FFF771FD0028F9D0A1B26E
:1017B0002846FFF71FFE204670BD00000044004091
:1017C0000038014010B504460BE0641C0A2902D021
:1017D0000D2902D002E00D2100E00A210220FFF7CE
:1017E000D3FF21780029F0D110BD00002DE9F04190
:1017F000974C20212046FFF749FD00287BD020464A
:10180000FFF7F4FDC4B293480126816A31B3002585
:10181000632C31D06D2C38D0682C3FD0C16A0A2798
:1018200000296AD08046C06B002843D0A4F1300064
:1018300005287CD821460220FFF7A6FFD8F818100B
:10184000404691FBF7F207FB121104EB840201EB17
:101850004201A1F5F071C8F8181071E0732C4AD15B
:1018600086627DA0FFF7AEFF7EA0FFF7ABFF83A0EF
:10187000FFF7A8FF87A0BDE0C0E90B65C66345631D
:101880008AA0FFF79FFF8DA010E0C0E90B56C6634A
:1018900045638EA0FFF796FF90A007E0C562C0E900
:1018A0000C56C66391A0FFF78DFF93A0BDE8F041F1
:1018B000FFF788BFD8F83800464600281BD0A4F1AF
:1018C0003000092833D821460220FFF75DFF0A21A6
:1018D0000220FFF759FF0D210220FFF755FFB069E5
:1018E000F56390FBF7F000EB800004EB4000B5637C
:1018F0003038F562B061BDE8F081016B8046E1B33C
:10190000D8F83C0000B3A4F13000052871D8214676
:101910000220FFF739FF0D210220FFF735FFD8F82D
:101920001410404691FBF7F207FB121100E060E053
:1019300004EB840201EB4201A1F5F071C8F8141028
:10194000C563C8F83860D6E7D8F83800464600289E
:10195000D1D0A4F1300009284BD821460220FFF74E
:1019600013FF0A210220FFF70FFF0D210220FFF7CE
:101970000BFF706990FBF7F000E009E000EB8000DE
:10198000F56304EB4000B563303835637061B2E74E
:10199000D8F83400E8B3D8F83C00B8B1A4F130006E
:1019A000022826D821460220FFF7EEFED8F81010B4
:1019B000404691FBF7F207FB121104EB840201EBA6
:1019C0004201A1F5F071C8F81010B9E7D8F8380055
:1019D000464600288FD0A4F13000092802D831698A
:1019E00014290FDB032804D8306990FBF7F0022894
:1019F00008D045A0FFF7E6FEBDE8F0410721022030
:101A0000FFF7C2BE21460220FFF7BEFE0A210220D8
:101A100000E012E0FFF7B8FE0D210220FFF7B4FE50
:101A20003069F56390FBF7F000EB800004EB4000B9
:101A3000B5633038756330615DE70A2C01D00D2C39
:101A4000A5D135A0FFF7BEFEC8F8285053E7000027
:101A5000004400400400002053657420636C6F63F1
:101A60006B0A0D005072657373206820746F2073C9
:101A7000657420486F75720A0D000000507265731E
:101A800073206D20746F20736574204D696E7574BA
:101A9000650A0D005072657373206320746F2073A4
:101AA0006574205365636F6E640A0D00536574207E
:101AB0005365636F6E640A0D000000005365636F29
:101AC0006E642028535329203D2000005365742064
:101AD0004D696E7574650A0D000000004D696E75E4
:101AE000746520284D4D29203D2000005365742049
:101AF000486F75720A0D0000486F757220284848BB
:101B000029203D200000000057726F6E6720496E4B
:101B10007075740A0D000000436C6F636B20736571
:101B20007474696E672066696E6973680A0D0000D7
:101B30002DE9F0470024364D27464FF006094FF0B7
:101B400064080A2694FBF9F135F81400074409FBF0
:101B5000114038B90A210220FFF716FE0D2102209C
:101B6000FFF712FE35F81400642805D3B0FBF8F136
:101B700030310220FFF708FE35F814000A2809D397
:101B8000B0FBF8F208FB1200B0FBF6F13031022096
:101B9000FFF7FAFD35F81400B0FBF6F106FB110172
:101BA00030310220FFF7F0FD2C210220FFF7ECFD81
:101BB000641C3C2CC6DB3C2097FBF0F415A0FFF71F
:101BC00001FE642C05DB94FBF8F130310220FFF7B5
:101BD000DBFD0A2C09DB94FBF8F108FB114090FBBC
:101BE000F6F130310220FFF7CFFD94FBF6F006FB53
:101BF000104130310220FFF7C7FD0A210220FFF714
:101C0000C3FDBDE8F0470D210220FFF7BDBD000078
:101C10009C000020417665726167652054656D7097
:101C200065726174757265203D20000070B5174CB7
:101C30004FF4FA71E06890FBF1F201FB120000280A
:101C400021D1E06900B30020114DE0610221284656
:101C5000FEF7B5FA0028F9D02846FEF7ADFA0A30AB
:101C60002921B0FBF1F02080FFF7EEFB09493B2072
:101C700001EB400232F8022C21F81020401E00280F
:101C8000F6DC2088088070BD0120DDE7040000201C
:101C9000002401409C000020000100020004000814
:101CA00000100020004000804000000040000000C4
:101CB0004000000040000000400000004000000024
:101CC000400000004000000001000020000800105B
:101CD0000020004000800000040000001000000010
:101CE0002000000020000000200000002000000074
:101CF000200000000100002000080010002000402B
:101D00000080000002000300030003000300030042
:101D100000000D000B000C000D000E000F0006006F
:101D200028002800280028002800280000000000C3
:101D300000000000000000000000000000000000A3
:101D40000000000000000000000000000000000093
:101D50000000000000000000000000000000800102
:101D6000800180018001800180018001800180016B
:101D7000800180018001800100000000800180015D
:101D80000000000000000000000000000000000053
:101D9000CC00CC00CC00CC00CC00CC00000000007B
:101DA0000000000000000000000000000000000033
:101DB0000000000000000000000000000000000023
:101DC0000000000000000000600C600C600C300699
:101DD0003006FE1FFE1F300638071803FE1FFE1FC9
:101DE000180318038C018C018C0100000000800096
:101DF000E003F80F9C0E8C1C8C188C009800F801E6
:101E0000E007800E801C8C188C189C18B80CF00F02
:101E1000E0038000800000000000000000000000DF
:101E200000000E181B0C110C1106110611031103F2
:101E30009B018E01C038C06C604460443044304423
:101E40001844186C0C380000000000000000E0018D
:101E5000F0033807180618063003F001F000F80008
:101E60009C310E33061E061C061C063FFC73F02137
:101E70000000000000000000000000000000000062
:101E80000C000C000C000C000C000C00000000000A
:101E90000000000000000000000000000000000042
:101EA0000000000000000000000000000000000230
:101EB00000038001C000C0006000600030003000FE
:101EC0003000300030003000300030006000600032
:101ED000C000C000800100030002000000002000DC
:101EE0006000C000800180010003000300060006BE
:101EF00000060006000600060006000600030003B8
:101F000080018001C000600020000000000000008F
:101F10000000000000000000C000C000D806F80764
:101F2000E00130033807000000000000000000005E
:101F300000000000000000000000000000000000A1
:101F4000000000000000000080018001800180018D
:101F50008001FC3FFC3F8001800180018001800105
:101F60000000000000000000000000000000000071
:101F70000000000000000000000000000000000061
:101F800000000000000000000000000000008001D0
:101F9000800100010001800000000000000000003E
:101FA0000000000000000000000000000000000031
:101FB00000000000E007E007000000000000000053
:101FC0000000000000000000000000000000000011
:101FD0000000000000000000000000000000000001
:101FE0000000000000000000000000000000C00031
:101FF000C000000000000000000000000000000C15
:10200000000C000600060006000300030003800326
:10201000800180018001C000C000C000600060003D
:102020000000000000000000000000000000E003CD
:10203000F007380E180C0C180C180C180C180C188B
:102040000C180C180C180C18180C380EF007E003BC
:10205000000000000000000000000000000000017F
:102060008001C001F0019801880180018001800198
:102070008001800180018001800180018001800158
:102080000000000000000000000000000000E0036D
:10209000F80F180C0C180C1800180018000C00068B
:1020A00000038001C000600030001800FC1FFC1F0E
:1020B0000000000000000000000000000000E0013F
:1020C000F807180E0C0C0C0C000C0006C003C0071F
:1020D000000C001800180C180C18180CF807E00376
:1020E0000000000000000000000000000000000CE4
:1020F000000E000F000F800DC00C600C600C300C47
:10210000180C0C0CFC3FFC3F000C000C000C000CED
:102110000000000000000000000000000000F80FB8
:10212000F80F180018000C00EC03FC071C0E001C34
:102130000018001800180C181C0C180EF807E00303
:102140000000000000000000000000000000C007C8
:10215000F00F381C181818000C00CC03EC0F3C0EC4
:102160001C1C0C180C180C18181C380EF007E00377
:102170000000000000000000000000000000FC1F44
:10218000FC1F000C00060006000380038001C00154
:10219000C000E000600060007000300030003000DF
:1021A0000000000000000000000000000000E0034C
:1021B000F007380E180C180C180C3806F007F0074A
:1021C000180C0C180C180C180C18380CF80FE0032D
:1021D0000000000000000000000000000000E0031C
:1021E000F007380E1C0C0C180C180C181C1C381E90
:1021F000F81BE0190018000C000C1C0EF807F00189
:1022000000000000000000000000000000000000CE
:1022100000000000000000008001800100000000BC
:1022200000000000000000000000000080018001AC
:10223000000000000000000000000000000000009E
:10224000000000000000000080018001000000008C
:10225000000000000000000000000000800180017C
:1022600000010001800000000000000000000000EC
:102270000000000000000000000000000010001C32
:10228000800FE003F8001800F800E003800F001C46
:10229000001000000000000000000000000000002E
:1022A000000000000000000000000000F81F000017
:1022B00000000000F81F0000000000000000000007
:1022C000000000000000000000000000000000000E
:1022D00000000000000000000000000008003800BE
:1022E000F001C007001F0018001FC007F0013800F0
:1022F0000800000000000000000000000000E003F3
:10230000F80F180C0C180C180018000C000600032D
:102310008001C000C000C00000000000C000C0007C
:1023200000000000000000000000000000000000AD
:10233000E00718180420C229224A1144094409441C
:10234000094409221113E20C024004201818E00786
:1023500000000000000000000000000000008003FA
:102360008003C006C006C006600C600C3018301830
:102370003018F83FF83F1C700C600C6006C006C0B7
:102380000000000000000000000000000000FC034E
:10239000FC0F0C0C0C180C180C180C0CFC07FC0F88
:1023A0000C180C300C300C300C300C18FC1FFC07D7
:1023B0000000000000000000000000000000C00756
:1023C000F01F38381C300C7006600600060006004E
:1023D00006000600060006600C701C30F01FE007C7
:1023E0000000000000000000000000000000FE03EC
:1023F000FE0F060E061806180630063006300630A8
:1024000006300630063006180618060EFE0FFE03CC
:102410000000000000000000000000000000FC3F81
:10242000FC3F0C000C000C000C000C00FC1FFC1FFF
:102430000C000C000C000C000C000C00FC3FFC3FDE
:102440000000000000000000000000000000F83F55
:10245000F83F18001800180018001800F81FF81F9F
:1024600018001800180018001800180018001800AC
:102470000000000000000000000000000000E00F6D
:10248000F83F3C780E6006E007C00300030003FE3F
:1024900003FE03C007C006C00EC03CF0F83FE00FCB
:1024A00000000000000000000000000000000C30F0
:1024B0000C300C300C300C300C300C30FC3FFC3F3E
:1024C0000C300C300C300C300C300C300C300C302C
:1024D000000000000000000000000000000080017B
:1024E00080018001800180018001800180018001E4
:1024F00080018001800180018001800180018001D4
:1025000000000000000000000000000000000006C5
:10251000000600060006000600060006000600068B
:10252000000600060006180618063807F003E0014A
:102530000000000000000000000000000000063065
:102540000618060C060606038601C600660076001D
:10255000DE008E0106030606060C0618063006602D
:102560000000000000000000000000000000180053
:10257000180018001800180018001800180018009B
:10258000180018001800180018001800F81FF81F8D
:1025900000000000000000000000000000000EE04D
:1025A0001EF01EF01EF036D836D836D836D866CC97
:1025B00066CC66CCC6C6C6C6C6C6C6C686C386C3F5
:1025C00000000000000000000000000000000C30CF
:1025D0001C303C303C306C306C30CC30CC308C31EA
:1025E0000C330C330C360C360C3C0C3C0C380C30D9
:1025F0000000000000000000000000000000E007F4
:10260000F81F1C380E70066003C003C003C003C06F
:1026100003C003C003C006600E701C38F81FE0073B
:102620000000000000000000000000000000FC0F9F
:10263000FC1F0C380C300C300C300C300C18FC1F0C
:10264000FC070C000C000C000C000C000C000C0033
:102650000000000000000000000000000000E00793
:10266000F81F1C380E70066003E003C003C003C0EF
:1026700003C003C007E006630E3F1C3CF83FE0F7D1
:1026800000C0000000000000000000000000FE0F7D
:10269000FE1F06380630063006300638FE1FFE07DD
:1026A00006030606060C06180618063006300660F5
:1026B0000000000000000000000000000000E00337
:1026C000F80F1C0C0C180C180C001C00F803E00F81
:1026D000001E0038063006300E301C1CF80FE007D4
:1026E0000000000000000000000000000000FE7F6D
:1026F000FE7F8001800180018001800180018001D6
:1027000080018001800180018001800180018001C1
:1027100000000000000000000000000000000C307D
:102720000C300C300C300C300C300C300C300C30C9
:102730000C300C300C300C300C301818F81FE0073F
:102740000000000000000000000000000000036026
:102750000630063006300C180C180C18180C180C23
:10276000380E30063006700760036003C001C001F8
:1027700000000000000000000000000000000360F6
:10278000C361C361C36166336633663366336633E0
:1027900066336C1B6C1B6C1B2C1A3C1E380E380EDF
:1027A00000000000000000000000000000000FE03A
:1027B0000C7018303018700C600EC0078003800356
:1027C000C003E006700C301C18180C300E6007E0D7
:1027D000000000000000000000000000000003C036
:1027E00006600C301C383818300C6006E007C00357
:1027F00080018001800180018001800180018001D1
:102800000000000000000000000000000000FC7F4D
:10281000FC7F006000300018000C000600038001FF
:10282000C0006000300018000C000600FE7FFE7F34
:102830000000000000000000000000000000E003B5
:10284000E003600060006000600060006000600005
:102850006000600060006000600060006000600078
:10286000600060006000E003E00300000000300052
:102870003000600060006000C000C000C000C00107
:1028800080018001800100030003000300060006B0
:102890000000000000000000000000000000E00355
:1028A000E003000300030003000300030003000330
:1028B0000003000300030003000300030003000300
:1028C000000300030003E003E00300000000000039
:1028D000C001C00160036003600330063006180CBD
:1028E000180C0000000000000000000000000000C4
:1028F00000000000000000000000000000000000D8
:1029000000000000000000000000000000000000C7
:102910000000000000000000000000000000FFFFB9
:10292000FFFF0000000000000000000000000C009D
:102930000C000C000C000C000C000000000000005B
:102940000000000000000000000000000000000087
:102950000000000000000000000000000000000077
:102960000000000000000000F003F8071C0C0C0C35
:10297000000FF00FF80C0C0C0C0C1C0FF80FF018DB
:10298000000000000000000000000000000018002F
:102990001800180018001800D803F80F380C181881
:1029A00018181818181818181818380CF80FD80311
:1029B0000000000000000000000000000000000017
:1029C0000000000000000000C003F007300E180CEB
:1029D0001800180018001800180C300EF007C0037B
:1029E00000000000000000000000000000000018CF
:1029F0000018001800180018C01BF01F301C181811
:102A000018181818181818181818301CF01FC01BA0
:102A100000000000000000000000000000000000B6
:102A20000000000000000000C003F00F300C181878
:102A3000F81FF81F180018003818301CF00FC007D6
:102A40000000000000000000000000000000800FF7
:102A5000C00FC000C000C000F007F007C000C000F9
:102A6000C000C000C000C000C000C000C000C00066
:102A70000000000000000000000000000000000056
:102A80000000000000000000E00DF80F180E0C0C14
:102A90000C0C0C0C0C0C0C0C0C0C180EF80FE00DA4
:102AA000000C0C0C1C06F807F001000000001800D8
:102AB0001800180018001800D807F80F381C18184C
:102AC0001818181818181818181818181818181886
:102AD0000000000000000000000000000000C00036
:102AE000C000000000000000C000C000C000C00026
:102AF000C000C000C000C000C000C000C000C000D6
:102B00000000000000000000000000000000C00005
:102B1000C000000000000000C000C000C000C000F5
:102B2000C000C000C000C000C000C000C000C000A5
:102B3000C000C000C000F8007800000000000C00D9
:102B40000C000C000C000C000C0C0C060C038C018F
:102B5000CC006C00FC009C018C030C030C060C0CDC
:102B60000000000000000000000000000000C000A5
:102B7000C000C000C000C000C000C000C000C00055
:102B8000C000C000C000C000C000C000C000C00045
:102B90000000000000000000000000000000000035
:102BA00000000000000000007C3CFF7EC7E383C102
:102BB00083C183C183C183C183C183C183C183C1F5
:102BC0000000000000000000000000000000000005
:102BD00000000000000000009807F80F381C1818CB
:102BE0001818181818181818181818181818181865
:102BF00000000000000000000000000000000000D5
:102C00000000000000000000C003F00F300C181896
:102C100018181818181818181818300CF00FC003C6
:102C200000000000000000000000000000000000A4
:102C30000000000000000000D803F80F380C18183E
:102C400018181818181818181818380CF80FD8036E
:102C500018001800180018001800000000000000FC
:102C60000000000000000000C01BF01F301C1818FE
:102C700018181818181818181818301CF01FC01B2E
:102C800000180018001800180018000000000000CC
:102C90000000000000000000B007F00370003000EA
:102CA00030003000300030003000300030003000A4
:102CB0000000000000000000000000000000000014
:102CC0000000000000000000E003F003380E180CC4
:102CD0003800F003C007000C180C380EF007E003B2
:102CE00000000000000000000000000000000000E4
:102CF0008000C000C000C000F007F007C000C000A6
:102D0000C000C000C000C000C000C000C0078007F5
:102D100000000000000000000000000000000000B3
:102D200000000000000000001818181818181818E3
:102D300018181818181818181818381CF01FE01947
:102D40000000000000000000000000000000000083
:102D500000000000000000000C18180C180C180CE3
:102D6000300630063006600360036003C001C00116
:102D70000000000000000000000000000000000053
:102D80000000000000000000C141C141C361636355
:102D9000636363633636363636361C1C1C1C1C1CBB
:102DA0000000000000000000000000000000000023
:102DB00000000000000000001C38381C300C6006C9
:102DC00060036003600360036006300C381C1C382D
:102DD00000000000000000000000000000000000F3
:102DE0000000000000000000183030183018701883
:102DF000600C600CE00CC006C006800380038003FA
:102E000080018001C001F00070000000000000009F
:102E10000000000000000000FC1FFC1F000C00066A
:102E200000038001C000600030001800FC1FFC1F80
:102E3000000000000000000000000000000000038F
:102E40008001C000C000C000C000C000C000600021
:102E50006000300060004000C000C000C000C00042
:102E6000C000C000800100030000000000008001DD
:102E7000800180018001800180018001800180014A
:102E8000800180018001800180018001800180013A
:102E9000800180018001800180010000000060004D
:102EA000C000C00180018001800180018001000319
:102EB0000003000600030001800180018001800101
:102EC00080018001C00060000000000000000000E0
:102ED000000000000000000000000000F010F81FDB
:102EE000080F0000000000000000000000000000CB
:102EF000000000000000000000000000FFFFFFFFD6
:102F0000FFFFFFFFFFFFFFFFFFFFFFFFFFFFFFFFD1
:102F1000FFFFFFFFFFFFFFFFFFFFFFFFFFFFFFFFC1
:102F2000FFFFFFFFFFFFFFFFFFFFFFFFAAAA5555AF
:102F3000AAAA5555AAAA5555AAAA5555AAAA555599
:102F4000AAAA5555AAAA5555AAAA5555AAAA555589
:102F5000AAAA5555AAAA5555AAAA55550000000077
:102F6000000000000000000000000000F010F81F4A
:102F7000080F00000000000000000000000000003A
:102F8000000000000000000000000000AC2F00085E
:102F9000000000209C0000002814000848300008B1
:102FA0009C0000207C100000381400080000000085
:102FB0000000000000000000000000000000000011
:102FC0000000000000000000000000000000000001
:102FD00000000000050000000000000000000000EC
:102FE00000000000000000000000000000000000E1
:102FF00000000000020406080000000001020304B3
:1030000001020304060708090018014000180140E6
:10301000001801400018014000180140001801404C
:103020000018014000180140000801400010014054
:10303000001401400014014000140140001401403C
:08304000001401400000FFFF35
:04000005080001519D
:00000001FF
