:020000040800F2
:100000007810002065010008F30E0008D9090008E7
:10001000F10E000869060008FB1700080000000048
:10002000000000000000000000000000F7140008BD
:100030006B06000800000000EF0F00081115000813
:100040007B0100087B0100087B010008D113000838
:100050007B0100087B0100088D0600087B01000879
:100060007B0100087B0100087B0100087B01000880
:100070007B0100087B0100087B0100087B01000870
:100080007B0100087B0100087B0100087B01000860
:100090007B0100087B0100087B0100087B01000850
:1000A0007B010008851500087B0100087B01000822
:1000B0007B0100087B0100087B0100087B01000830
:1000C0007B0100087B0100087B0100087B01000820
:1000D0007B0100087B0100087B0100087B01000810
:1000E000E90600087B0100087B0100080000000011
:1000F0000000000000000000000000000000000000
:1001000000000000000000007B0100087B010008E7
:100110007B0100087B0100087B0100087B010008CF
:100120007B0100087B0100087B0100087B010008BF
:100130007B0100086D0600086F0600087B010008BF
:100140007B0100087B0100087B010008ED0F00081F
:10015000DFF80CD000F08AF900480047391A00088F
:100160007810002005480047FEE7FEE7FEE7FEE7BF
:10017000FEE7FEE7FEE7FEE7FEE7FEE751010008C7
:1001800040EA01039B0703D009E008C9121F08C019
:10019000042AFAD203E011F8013B00F8013B521E99
:1001A000F9D270472DE9F04D81EA030404F0004BC9
:1001B00021F0004514464FF0000A23F0004150EAB8
:1001C000050220D054EA01021DD0C5F30A570246A9
:1001D000C5F31303C1F31300C1F30A5640F48015AD
:1001E00043F48013A7EB0608101BD64608F2FD382F
:1001F00073EB050002D308F1010801E092185B419E
:10020000B8F1000F03DA00200146BDE8F08D0020B0
:100210004FF48011064684460EE0171B73EB05076A
:1002200005D3121B63EB050306434CEA010C490896
:100230004FEA300092185B4150EA0107EDD152EAD3
:10024000030012D082EA040083EA0501084303D1C7
:1002500000224FF0004308E0101BAB4102D2012204
:10026000002302E06FF0010253101AEB06004CEB82
:10027000085110EB0A0041EB0B01BDE8F04D00F016
:1002800096B80EB540F2334102910021CDE900113C
:100290000A460B4600F098F803B000BD00F000429B
:1002A00020F00040C10DC0F3160040F400007F298B
:1002B00001DA00207047962903DCC1F19601C8409D
:1002C00001E096398840002AF4D04042704701F09E
:1002D000004330B421F0004150EA010206D00A0D7B
:1002E000A2F56072C1F31301002A02DC30BC0020C9
:1002F0007047440F44EAC104C100E01830BC00EB71
:10030000C250AFF300800029A8BF7047401C4900CD
:1003100008BF20F00100704710B4B0FA80FC00FA6A
:100320000CF050EA010404BF10BC704749B1CCF195
:10033000200421FA04F411FA0CF118BF0121214321
:100340000843A3EB0C01CB1D0106000A002BBEBF26
:10035000002010BC704700EBC35010440029A4BF1C
:1003600010BC7047401C490008BF20F0010010BCC1
:10037000704710B541000CD0C0F3C751962908DC76
:100380007E2909DC06DB410204D000F0004040F089
:100390007E5010BD002010BDC1F19604C4F12001B3
:1003A00000FA01F1E040FFF7AEFFA04010BD10B52C
:1003B000002B08DA401C41F1000192185B411A43FE
:1003C00001D120F0010010BD2DE9F04D92469B4671
:1003D00011B1B1FA81F202E0B0FA80F22032904617
:1003E00000F056F804460F4640EA0A0041EA0B01C5
:1003F00053465A46084303D120463946BDE8F08D9E
:10040000114653EA010015D0C8F14002504600F0F1
:100410004EF805460E4650465946424600F038F81A
:10042000084301D0012000E00020054346EAE076C1
:100430002C4337430A984FEA4453A0EB08004FEA95
:10044000D4240A304FF0000244EA47544FEAD7253B
:1004500002D500200146D1E7010510196941DDE907
:10046000084500196941BDE8F04DA0E7064C074D6D
:1004700006E0E06840F0010394E807009847103474
:10048000AC42F6D3FFF768FE342D0008542D000867
:10049000202A04DB203A00FA02F100207047914044
:1004A000C2F1200320FA03F3194390407047202A39
:1004B00004DB203A21FA02F00021704721FA02F30E
:1004C000D040C2F1200291400843194670470029EC
:1004D000816802D041F0010101E021F00101816059
:1004E0007047C06C80B270470246002012680A4212
:1004F00000D001207047014600208968090700D517
:100500000120704710B542680E4B0C791A400B68F9
:1005100042EA04221343436083680B4A1340D1E943
:10052000024222434C7943EA44031A438260C26A7E
:10053000097C22F47002491EC9B242EA0151C1622B
:1005400010BD0000FFFEF0FFFDF7F1FF70B50724BE
:1005500009290AD9C568A1F10A0606EB4606B44086
:10056000A543B3401D43C56007E0056901EB4106A3
:10057000B440A543B3401D4305611F23072A09D298
:10058000446B521E02EB820293409C4391400C4309
:10059000446370BD0D2A09D2046BD21F02EB8202A4
:1005A00093409C4391400C43046370BDC46A0D3A70
:1005B00002EB820293409C4391400C43C46270BDA5
:1005C000816841F00801816070470029816802D08C
:1005D00041F4A00101E021F4A0018160704781682D
:1005E00041F004018160704710B5012186B04802D6
:1005F00000F020FD1020ADF8140000248DF8174005
:1006000005A9174800F036F94FF46021CDE902142E
:1006100000948DF804400120124C8DF805008DF8EF
:10062000100069462046FFF76DFF022301220E21CC
:100630002046FFF78BFF01212046FFF748FF2046A9
:10064000FFF7BEFF2046FFF756FF0028FAD12046ED
:10065000FFF7C5FF01212046FFF7B7FF06B010BD29
:100660000010014000240140FEE7704770477047CA
:10067000044951F82010CA68034B33F81000424077
:10068000CA60704734000020D01A000870B50120FD
:1006900000F056F8002821D0114D4FF400442146B7
:1006A000284600F05BF9C0F10100C2B2214628469D
:1006B00000F05BF95721022001F0EAF909490888A6
:1006C000401C80B2088001F0E9F84FF4967001F008
:1006D000C3F8BDE87040012000F02CB870BD0000E8
:1006E000001801400400002070B54FF40056304659
:1006F00000F026F8002819D00D4D74112146284627
:1007000000F02CF9C0F10100C2B22146284600F0E9
:100710002CF95421022001F0BBF94FF4967001F03E
:100720009BF83046BDE8704000F004B870BD000092
:10073000001801400149086070470000140401409E
:10074000064A014600201268044B0A4014331B6815
:100750000B4202D0002A00D0012070470004014063
:1007600030B51A498379026853B30B6893430B6021
:100770000A1D13680468A343136002790A441368CE
:10078000046823431360114A083213680468A343C2
:100790001360131D1C680568AC431C604479102C61
:1007A00005D021440A68006802430A6030BD116820
:1007B000046821431160196800680143196030BD65
:1007C0000079084401689143016030BD0004014094
:1007D0007CB50121084600F02DFC0D21022000F01F
:1007E00035F84FF40050002500908DF804500C208F
:1007F0008DF8050001248DF806406846FFF7B0FF2C
:100800000021084600F022F88DF8045008208DF8E9
:10081000050000948DF806406846FFF7A1FF7CBDF7
:1008200004490A6822F010020A600A6802430A605A
:100830007047000000200240034A116801F03801AF
:1008400001431160704700000020024010B58A0784
:1008500021F003040649130F21440F228C689A40AB
:1008600094438C608A68984002438A6010BD0000FF
:1008700000000140F0B5CA78002502F00F03D2064F
:1008800001D58A7813430C784FF00F0E0122ECB19A
:10089000D0F800400F8802FA05F63740B74211D170
:1008A0004FEA850C0EFA0CF724EA070703FA0CF45A
:1008B0003C43CF78282F02D0482F02D002E0466177
:1008C00000E006616D1C082DE4D304600C88FF2C49
:1008D0001ED944685FF0000606F1080702FA07F522
:1008E0000F882F40AF420FD14FEA860C0EFA0CF75B
:1008F000BC4303FA0CF73C43CF78282F00D1456165
:10090000CF78482F00D10561761C082EE4D34460CF
:10091000F0BD0000F0B5104D6A68440D260184B2A8
:10092000C0F30157B440C0F30343032F05D0C00206
:100930000AD503209840824307E0686822F070637C
:1009400020F07060686002E0A24342F0706301B181
:1009500023436B60F0BD0000000001400246002010
:10096000D2680A4200D0012070470AB10161704785
:100970004161704738B50121542000F05BFB4FF412
:100980007F40ADF8000003248DF8024010208DF860
:10099000030069460D48FFF76DFF0120ADF8000028
:1009A0008DF8024004258DF8035069460848FFF78A
:1009B00061FFE802ADF800008DF802408DF80350A9
:1009C00069460448FFF756FF38BD00000018014093
:1009D0000008014000100140FEE7000010B5044689
:1009E00000224FF480710748FFF7BFFF2146064CF5
:1009F000204600F062FD8021204600F057FD0028CF
:100A0000F9D110BD00100140003C004070B5064611
:100A1000002440F23F11204600F0DAF800F010FA0E
:100A20004FF49635304600F0F1F9641CAC42F9D32E
:100A3000BDE87040012211020148FFF796BF000097
:100A400000100140203AD2B2034B02EB420203EB0A
:100A5000021200F01BB80000641B00082DE9F041F1
:100A60000E460746002540F23F1407E0214638466F
:100A7000FFF7E8FF103C761CA4B26D1C3278002A08
:100A800001D0142DF2D3BDE8F08100002DE9F74F1D
:100A9000914604460026019900F09AF8DFF8548048
:100AA000DFF854B001274FF4807A00BF00F0C8F996
:100AB0005FF0000539F8160007FA05F108424046D4
:100AC00015D0008800F0A2F96D1C102DF2D3012280
:100AD00051465846FFF749FF641CE4B2204601998D
:100AE00000F076F8761C182EE0D3BDE8FE8F408823
:100AF000E8E70000700000200010014038B5012137
:100B0000302000F097FA4FF48070ADF80000032415
:100B10008DF8024010258DF8035069460748FFF70D
:100B2000A9FE8020ADF800008DF802408DF803503A
:100B300069460348FFF79EFE38BD000000100140E3
:100B40000014014010B586B00121112000F072FAA6
:100B500001211C48FFF7DEFE0121C80300F052FA14
:100B60004FF4E050ADF8140003208DF81600182063
:100B70008DF8170005A91448FFF77CFE134C20469A
:100B800000F06AFC0021ADF800104FF48270ADF85F
:100B90000200ADF804100220ADF806000120ADF807
:100BA00008004002ADF80C10ADF80A00ADF80E10C8
:100BB0006946204600F083FC0121204600F042FCFB
:100BC00006B010BD0010200000100140003C0040A5
:100BD00010B50C460146202000F03CF92146BDE846
:100BE0001040212000F036B901B5BDF800000149E0
:100BF000088008BD7000002010B5FFF77FFF0122BC
:100C000080218148FFF7B1FEFFF79CFF052000F02F
:100C100037FE4FF40041E52000F01CF901210020CF
:100C200000F018F94FF48071012000F013F94FF42F
:100C3000E061022000F00EF941F23001032000F0E3
:100C400009F90021042000F005F940F202210820F2
:100C500000F000F90021092000F0FCF800210A2032
:100C600000F0F8F800210C2000F0F4F800210D202D
:100C700000F0F0F800210F2000F0ECF80021102027
:100C800000F0E8F80021112000F0E4F80021122023
:100C900000F0E0F80021132000F0DCF8142000F050
:100CA000EFFD41F2B071102000F0D4F840F237119E
:100CB000112000F0CFF8052000F0E2FD40F23911DC
:100CC000122000F0C7F8052000F0DAFD4FF4E851DB
:100CD000132000F0BFF81321292000F0BBF80520F5
:100CE00000F0CEFD0021202000F0B4F800212120EA
:100CF00000F0B0F80621302000F0ACF840F201110D
:100D0000312000F0A7F80321322000F0A3F84FF4BF
:100D10008371352000F09EF840F60231362000F055
:100D200099F840F20231372000F094F840F2077150
:100D3000382000F08FF80721392000F08BF84FF4AD
:100D4000C0613C2000F086F840F20B213D2000F00D
:100D500081F80021502000F07DF8EF21512000F0B3
:100D600079F80021522000F075F840F23F1153202D
:100D700000F070F84FF42741602000F06BF801217B
:100D8000612000F067F800216A2000F063F800217C
:100D9000802000F05FF80021812000F05BF8002146
:100DA000822000F057F80021832000F053F8002142
:100DB000842000F04FF80021852000F04BF810212E
:100DC000902000F047F80021922000F043F8032122
:100DD000932000F03FF84FF48871952000F03AF826
:100DE0000021972000F036F80021982000F032F81A
:100DF00041F21801032000F02DF8BDE8104040F248
:100E00007311072000F026B80014014070B50B4D97
:100E10000446010A284600F050FB8021284600F0D5
:100E200045FB0028F9D1E1B2284600F046FB8021BD
:100E3000284600F03BFB0028F9D170BD003C004083
:100E400010B5222000F02EF8BDE810407220FFF708
:100E5000C5BD000070B50C4600F024F87220FFF705
:100E6000BDFD0E4D210A284600F027FB80212846B3
:100E700000F01CFB0028F9D1E1B2284600F01DFB70
:100E80008021284600F012FB0028F9D1BDE870400F
:100E9000012211020248FFF768BD0000003C00403B
:100EA0000010014070B505467020FFF797FD0E4C0D
:100EB0000021204600F001FB8021204600F0F6FAD8
:100EC0000028F9D12946204600F0F7FA8021204673
:100ED00000F0ECFA0028F9D1BDE8704001221102BF
:100EE0000248FFF742BD0000003C004000100140F6
:100EF000FEE77047F0B50F21C478027801234FF068
:100F0000E026DCB1124C2468457804F4E064C4F5B2
:100F1000E064240AC4F10407E1408478BD400C4039
:100F20002C4321010B4C1155007800F01F018B4020
:100F3000400906EB8000C0F80031F0BD02F01F0050
:100F40008340500906EB8000C0F88031F0BD0000FE
:100F50000CED00E000E400E00249084302490860AB
:100F6000704700000000FA050CED00E0024A114055
:100F7000014302480160704780FFFF1F08ED00E059
:100F800038B500214FF00060FFF7F0FF4FF4C0606C
:100F9000FFF7E2FF28208DF8000000258DF80150B2
:100FA00003208DF8020001248DF803406846FFF706
:100FB000A1FF4FF4E060FFF7CFFF06208DF800009F
:100FC0008DF801408DF802408DF803406846FFF728
:100FD00091FFFF208DF800008DF801508DF8025030
:100FE0008DF803406846FFF785FF38BD70477047AE
:100FF000034A516821F440410143516070470000A9
:1010000000100240044A0029D16901D0014300E0E8
:101010008143D1617047000000100240044A00295A
:10102000116901D0014300E0814311617047000064
:1010300000100240044A0029916901D0014300E0F8
:10104000814391617047000000100240044A00296A
:10105000D16801D0014300E08143D16070470000B6
:10106000001002400F48016841F001010160416831
:101070000D4A1140416001680C4A1140016001684D
:1010800021F480210160416821F4FE014160016882
:1010900021F0A05101604FF47F0181600021C16205
:1010A00070470000001002400000FFF0FFFFF6FE56
:1010B000F0B52C4A51682C4B11F00C014FF00F0584
:1010C00004D02A4C042903D0082903D0036028E067
:1010D000046026E05168536805EA914103F48033C7
:1010E0000D2901D0891C00E00621BBB1D36A13F49D
:1010F000803FD36A03F00F0303F101030AD0D66ADD
:10110000D76AC6F30316761CB4FBF6F4C7F30327BD
:10111000BF1C7C43B4FBF3F34B43D7E7144B594359
:1011200001605168134C05EA1111635C0168D940F4
:1011300041605368072505EA1323E35C21FA03F3B2
:101140008360536805EAD323E35CD940C1605268E9
:10115000032303EA9232231F9A5CB1FBF2F101618F
:10116000F0BD00000010024000127A0040787D01BE
:1011700000093D00240000200246002053090949CF
:10118000012B0BD0022B0BD0D1F8241002F01F0240
:10119000012393400B4200D0012070470968F5E716
:1011A000096AF3E7001002400248406800F00C00B2
:1011B0007047000000100240034A516821F0F0011E
:1011C0000143516070470000001002400B490A685B
:1011D00022F480320A600A6822F480220A60B0F5A4
:1011E000803F07D0B0F5802F03D1086840F4A020DD
:1011F00008607047086840F48030F9E7001002404A
:10120000034A516821F4E0610143516070470000D6
:101210000010024003494A6822F4605242EAC000CA
:10122000486070470010024001498866704700001E
:1012300000004242034AD16A21F470610143D16245
:101240007047000000100240014908667047000026
:1012500000004242034A5368084323F474131843BE
:101260005060704700100240044B10B5DA6A044C1D
:10127000084322401043D86210BD00000010024015
:10128000F0FFFEFF034AD16A21F0F0010143D16271
:101290007047000000100240034A516821F003012A
:1012A00001435160704700000010024018B5002053
:1012B0004FF4A06400903120FFF75EFF0099491CB5
:1012C0000091A14201D00028F5D03120FFF754FF52
:1012D000002800D0012018BD10B5FFF7C3FE4FF461
:1012E00080342046FFF772FFFFF7E0FF012800D0AF
:1012F000FEE71020FFF794FA0220FFF79DFA002086
:10130000FFF75AFF0020FFF785FF4FF48060FFF7DB
:1013100077FF4FF40040FFF76BFE4020FFF7B2FF6E
:101320004FF4C060FFF786FF0120FFF77DFF3B20F1
:10133000FFF722FF0028FAD004212046FFF794FF90
:101340004FF4E0112046FFF785FF0120FFF77CFFF7
:101350003920FFF711FF0028FAD00220FFF79CFF89
:10136000FFF722FF0828FBD110BD000002490A88C0
:1013700082430A8070470000042800400248018828
:1013800041F01001018070470428004002480188A4
:1013900021F01001018070470428004003480088B4
:1013A0000249091F098840EA014070471C28004093
:1013B00006490988C2B21140044A121F128802422B
:1013C00002D009B101207047002070470428004076
:1013D00010B50120FFF7ECFF002816D00120FFF721
:1013E000C5FF0020FFF744F908490120086000F01C
:1013F00021F8FFF7D3FF0649884206D1002000F00C
:1014000009F8BDE8104000F015B810BD000000203C
:101410008051010000B50246FFF7B0FF0449100CEF
:101420000880081D02805DF804EBFFF7AFBF0000E5
:1014300018280040024801888906FCD57047000042
:10144000042800400029018802D041F0400101E059
:1014500021F0400101807047114910B588420AD13E
:10146000841401212046FFF7F1FD2046BDE810401D
:101470000021FFF7EBBD0B49884202D10121041482
:1014800004E0094988420AD10121C4132046FFF72C
:10149000C5FD2046BDE810400021FFF7BFBD10BDCF
:1014A0000030014000380040003C0040024600206F
:1014B00012890A4200D0012070478181704730B5FF
:1014C00002884C8802F441530A88CD8822438C88D4
:1014D0002C4322430C8922434C8922438C8922438A
:1014E000CC8922431A430280828B22F400628283D9
:1014F000098A018230BD70474FF0E0210428086955
:1015000003D020F004000861704740F00400FAE7BF
:1015100011484FF47A724168491CB1FBF2F3416003
:1015200002FB1311002916D141604269521C42612D
:101530003C2A01DA026903E041610269521C02613E
:101540003C2A01DAC26803E00161C268521CC26031
:10155000182A00DBC16070470400002010B5042089
:10156000FFF7CAFF4FF0E02004494161044AF0212F
:101570001170002181610721016110BD3E19010038
:1015800023ED00E003488168491C81600121024885
:1015900000F028B804000020002C01403EB50121D5
:1015A000C802FFF747FD4720ADF80000002040F2D9
:1015B000E731ADF804100A4CADF80200ADF80600B2
:1015C0008DF808006946204600F022F801221146F5
:1015D000204600F015F80121204600F006F83EBD37
:1015E000002C0140C943018270470029018802D0C4
:1015F00041F0010102E040F2FE32114001807047EB
:10160000002A828901D00A4300E08A438281704720
:10161000028802F08F020280CA884B881A4303882E
:101620001A4302808A8882850A880285054A904288
:1016300002D0054A904201D1097A018601218182B6
:1016400070470000002C01400034014000298189CE
:1016500002D041F4005101E021F400518181704732
:101660000246002012880A4200D001207047000084
:1016700030B50446008A85B00D464CF6FF7108402F
:10168000E98801432182A1894EF6F3100140A88820
:101690002A8910436A890A431043A081A08A4FF621
:1016A000FF410840A9890143A1826846FFF700FD78
:1016B0001148844201D1039800E00298642200EBB3
:1016C000C00101EB001029686FF018058900B0FB1C
:1016D000F1F0B0FBF2F109010B096B4300EB830061
:1016E000322303EB0010B0FBF2F000F00F000843D0
:1016F000208105B030BD0000003801402DE9F843DD
:101700000424402518260327884601282CD00228C7
:1017100028D101212120FFF78DFC01210820FFF7AE
:10172000F9F801214804FFF76DFC2020ADF8000016
:101730008DF803601E4E8DF8027069463046FFF743
:1017400099F8ADF800508DF8034069463046FFF730
:1017500091F8184C41462046FFF78AFF01212046A8
:10176000FFF774FFBDE8F88301210920FFF762FC51
:1017700001210420FFF7CEF801218803FFF75AFC6E
:10178000ADF800500C4D8DF803608DF8027069467D
:101790002846FFF76FF88020ADF800008DF8034071
:1017A00069462846FFF766F84146044CD3E7000037
:1017B0000014014000440040000C0140003801408A
:1017C000C1F30801818070471FB54FF4E1300090EC
:1017D0000020ADF80400ADF80600ADF80800ADF843
:1017E0000C000C20ADF80A0069460120FFF786FFC7
:1017F00069460220FFF782FF1FBDFEE702E008C82E
:10180000121F08C1002AFAD170477047002001E07A
:1018100001C1121F002AFBD17047000070B50C4CAB
:101820004FF4FA71A068B0FBF1F201FB120000283E
:101830000DD1084D02212846FEF756FE0028F9D0AA
:101840002846FEF74EFE64214843000B608070BDC1
:1018500004000020002401400CB5002341F2955102
:101860001A46009308E00193019A521C01928A42A1
:10187000FAD3009A521C00928242F4D30CBD0000AD
:1018800001B581B00449019848430090002801D077
:10189000401EFAE70CBD0000A08601002DE9F041D2
:1018A0000024012506460A2103E000BF90FBF1F069
:1018B000641C0028FAD1012004E000BF05EB85027A
:1018C0005500401CA042F9DB88466CB196FBF5F749
:1018D00007F13001022000F0DBF805FB176095FBF3
:1018E000F8F586B2641EF0E7BDE8F0412021022041
:1018F00000F0CEB810B586B0044614220FA1684699
:10190000FEF73EFC2046FEF7BCFC114A114BFEF7E9
:1019100049FCFEF7DCFC00F0D9F8FEF7BFFC002123
:101920006A46582302E05418491CE3708142FADBEE
:1019300011467820FFF792F806B010BD2020204F06
:101940004F4F4F4F4F4F4F4F4F4F4F4F4F20202034
:101950008FC2F5285C8F1C4030B585B000206946E9
:1019600020220A54401C1428FBDB144B4FF47A71DC
:101970005888B0FBF1F401FB14016424B1FBF4F0CE
:1019800004FB101100F130050A24B1FBF4F08DF8CE
:10199000065000F1300504FB10108DF807505880F8
:1019A00030308DF808008DF8092043208DF80A00AA
:1019B00069464820FFF752F805B030BD040000200A
:1019C00030B585B00020694620220A54401C1428F6
:1019D000FBDB184A0A20D36893FBF0F101F13004D5
:1019E0008DF8064000FB113130313A248DF8071094
:1019F0008DF80840136993FBF0F101F1300500FB0D
:101A000011318DF8095030318DF80A108DF80B40E6
:101A1000526992FBF0F100FB112001F130038DF8C7
:101A20000C3030308DF80D0069461820FFF716F89D
:101A300005B030BD04000020FFF74EFCFEF79AFF12
:101A4000FFF7C2FEFFF79CFAFEF7C2FEFEF7CCFDE1
:101A5000FFF7D2F8FFF7A2FDFFF780FD4FF6FF700A
:101A6000FEF7D4FF4FF47840FFF7BEF8074C00BFF5
:101A7000FFF7D4FEFFF7A4FFFFF76EFF6088FFF7C4
:101A800039FF6088FFF70AFFF2E70000040000203A
:101A900070B50C46012807D00A4D40212846FFF7B3
:101AA000DFFD0028F9D006E0074D40212846FFF76A
:101AB000D7FD0028F9D0A1B22846FFF781FE2046C5
:101AC00070BD00000044004000380140FEF751BCEA
:101AD0000001000200040008001000200040008007
:101AE00040000000400000004000000040000000F6
:101AF00040000000400000004000000040000000E6
:101B000001000020000800100020004000800000BC
:101B10000400000010000000200000002000000071
:101B20002000000020000000200000000100002034
:101B300000080010002000400080000002000300A8
:101B4000030003000300030000000D000B000C0065
:101B50000D000E000F0006002800280028002800B5
:101B60002800280000000000000000000000000025
:101B70000000000000000000000000000000000065
:101B80000000000000000000000000000000000055
:101B900000000000000080018001800180018001C0
:101BA000800180018001800180018001800180012D
:101BB0000000000080018001000000000000000023
:101BC0000000000000000000CC00CC00CC00CC00E5
:101BD000CC00CC000000000000000000000000006D
:101BE00000000000000000000000000000000000F5
:101BF00000000000000000000000000000000000E5
:101C0000600C600C600C30063006FE1FFE1F3006B4
:101C100038071803FE1FFE1F180318038C018C01E0
:101C20008C01000000008000E003F80F9C0E8C1C6B
:101C30008C188C009800F801E007800E801C8C182E
:101C40008C189C18B80CF00FE00380008000000096
:101C5000000000000000000000000E181B0C110C1A
:101C600011061106110311039B018E01C038C06CCF
:101C700060446044304430441844186C0C38000010
:101C8000000000000000E001F00338071806180605
:101C90003003F001F000F8009C310E33061E061CE4
:101CA000061C063FFC73F02100000000000000004D
:101CB00000000000000000000C000C000C000C00F4
:101CC0000C000C00000000000000000000000000FC
:101CD0000000000000000000000000000000000004
:101CE000000000000000000200038001C000C000EE
:101CF0006000600030003000300030003000300004
:101D00003000300060006000C000C00080010003AF
:101D100000020000000020006000C000800180017F
:101D20000003000300060006000600060006000689
:101D3000000600060003000380018001C00060006F
:101D40002000000000000000000000000000000073
:101D5000C000C000D806F807E001300338070000D3
:101D60000000000000000000000000000000000073
:101D70000000000000000000000000000000000063
:101D800080018001800180018001FC3FFC3F8001D7
:101D9000800180018001800100000000000000003F
:101DA0000000000000000000000000000000000033
:101DB0000000000000000000000000000000000023
:101DC000000000000000800180010001000180008F
:101DD0000000000000000000000000000000000003
:101DE000000000000000000000000000E007E00725
:101DF00000000000000000000000000000000000E3
:101E000000000000000000000000000000000000D2
:101E100000000000000000000000000000000000C2
:101E2000000000000000C000C00000000000000032
:101E3000000000000000000C000C00060006000678
:101E40000003000300038003800180018001C000C3
:101E5000C000C00060006000000000000000000042
:101E6000000000000000E003F007380E180C0C180A
:101E70000C180C180C180C180C180C180C180C1842
:101E8000180C380EF007E00300000000000000000E
:101E900000000000000000018001C001F001980175
:101EA0008801800180018001800180018001800122
:101EB000800180018001800100000000000000001E
:101EC000000000000000E003F80F180C0C180C18BC
:101ED00000180018000C000600038001C00060001C
:101EE00030001800FC1FFC1F000000000000000074
:101EF000000000000000E001F807180E0C0C0C0CAC
:101F0000000C0006C003C007000C001800180C18D5
:101F10000C18180CF807E003000000000000000097
:101F2000000000000000000C000E000F000F800DEC
:101F3000C00C600C600C300C180C0C0CFC3FFC3F0F
:101F4000000C000C000C000C000000000000000061
:101F5000000000000000F80FF80F180018000C0037
:101F6000EC03FC071C0E001C0018001800180C18CD
:101F70001C0C180EF807E003000000000000000031
:101F8000000000000000C007F00F381C18181800EF
:101F90000C00CC03EC0F3C0E1C1C0C180C180C187D
:101FA000181C380EF007E0030000000000000000DD
:101FB000000000000000FC1FFC1F000C00060006D3
:101FC000000380038001C001C000E00060006000E9
:101FD0007000300030003000000000000000000001
:101FE000000000000000E003F007380E180C180C89
:101FF000180C3806F007F007180C0C180C180C1801
:102000000C18380CF80FE00300000000000000007E
:10201000000000000000E003F007380E1C0C0C1854
:102020000C180C181C1C381EF81BE0190018000CAA
:10203000000C1C0EF807F00100000000000000007A
:102040000000000000000000000000000000000090
:10205000800180010000000000000000000000007E
:10206000000000008001800100000000000000006E
:102070000000000000000000000000000000000060
:10208000800180010000000000000000000000004E
:1020900000000000800180010001000180000000BC
:1020A0000000000000000000000000000000000030
:1020B000000000000010001C800FE003F800180072
:1020C000F800E003800F001C00100000000000007A
:1020D0000000000000000000000000000000000000
:1020E00000000000F81F000000000000F81F0000C2
:1020F00000000000000000000000000000000000E0
:1021000000000000000000000000000000000000CF
:102110000000000008003800F001C007001F001890
:10212000001FC007F0013800080000000000000098
:10213000000000000000E003F80F180C0C180C1849
:102140000018000C000600038001C000C000C000A1
:1021500000000000C000C0000000000000000000FF
:102160000000000000000000E00718180420C22949
:10217000224A114409440944094409221113E20C7A
:10218000024004201818E0070000000000000000D2
:1021900000000000000080038003C006C006C006E7
:1021A000600C600C301830183018F83FF83F1C7085
:1021B0000C600C6006C006C00000000000000000BB
:1021C000000000000000FC03FC0F0C0C0C180C18A5
:1021D0000C180C0CFC07FC0F0C180C300C300C30DD
:1021E0000C300C18FC1FFC07000000000000000071
:1021F000000000000000C007F01F38381C300C70D1
:1022000006600600060006000600060006000660DE
:102210000C701C30F01FE007000000000000000000
:10222000000000000000FE03FE0F060E0618061850
:102230000630063006300630063006300630061806
:102240000618060EFE0FFE0300000000000000004E
:10225000000000000000FC3FFC3F0C000C000C00E4
:102260000C000C00FC1FFC1F0C000C000C000C00F0
:102270000C000C00FC3FFC3F0000000000000000D0
:10228000000000000000F83FF83F18001800180098
:1022900018001800F81FF81F180018001800180080
:1022A00018001800180018000000000000000000CE
:1022B000000000000000E00FF83F3C780E6006E0F0
:1022C00007C00300030003FE03FE03C007C006C0EF
:1022D0000EC03CF0F83FE00F0000000000000000DE
:1022E0000000000000000C300C300C300C300C30C2
:1022F0000C300C30FC3FFC3F0C300C300C300C3000
:102300000C300C300C300C300000000000000000DD
:102310000000000000008001800180018001800138
:1023200080018001800180018001800180018001A5
:102330008001800180018001000000000000000099
:10234000000000000000000600060006000600066F
:102350000006000600060006000600060006180635
:1023600018063807F003E00100000000000000003C
:1023700000000000000006300618060C06060603E2
:102380008601C60066007600DE008E0106030606A2
:10239000060C061806300660000000000000000071
:1023A00000000000000018001800180018001800B5
:1023B000180018001800180018001800180018005D
:1023C00018001800F81FF81F0000000000000000AF
:1023D0000000000000000EE01EF01EF01EF036D8D7
:1023E00036D836D836D866CC66CC66CCC6C6C6C615
:1023F000C6C6C6C686C386C3000000000000000033
:102400000000000000000C301C303C303C306C30D0
:102410006C30CC30CC308C310C330C330C360C3669
:102420000C3C0C3C0C380C3000000000000000009C
:10243000000000000000E007F81F1C380E70066066
:1024400003C003C003C003C003C003C003C00660D1
:102450000E701C38F81FE0070000000000000000AC
:10246000000000000000FC0FFC1F0C380C300C308A
:102470000C300C300C18FC1FFC070C000C000C007E
:102480000C000C000C000C0000000000000000001C
:10249000000000000000E007F81F1C380E70066006
:1024A00003E003C003C003C003C003C007E006632A
:1024B0000E3F1C3CF83FE0F700C0000000000000A9
:1024C000000000000000FE0FFE1F06380630063038
:1024D00006300638FE1FFE0706030606060C061821
:1024E00006180630063006600000000000000000FC
:1024F000000000000000E003F80F1C0C0C180C1882
:102500000C001C00F803E00F001E003806300630F7
:102510000E301C1CF80FE007000000000000000057
:10252000000000000000FE7FFE7F8001800180012E
:102530008001800180018001800180018001800193
:102540008001800180018001000000000000000087
:102550000000000000000C300C300C300C300C304F
:102560000C300C300C300C300C300C300C300C308B
:102570000C301818F81FE0070000000000000000F1
:1025800000000000000003600630063006300C1822
:102590000C180C18180C180C380E30063006700782
:1025A00060036003C001C0010000000000000000E3
:1025B0000000000000000360C361C361C3616633B3
:1025C000663366336633663366336C1B6C1B6C1B79
:1025D0002C1A3C1E380E380E0000000000000000CF
:1025E0000000000000000FE00C7018303018700C74
:1025F000600EC00780038003C003E006700C301C2F
:1026000018180C300E6007E0000000000000000009
:1026100000000000000003C006600C301C383818B1
:10262000300C6006E007C00380018001800180015A
:102630008001800180018001000000000000000096
:10264000000000000000FC7FFC7F006000300018EC
:10265000000C000600038001C0006000300018007C
:102660000C000600FE7FFE7F00000000000000005E
:10267000000000000000E003E00360006000600074
:10268000600060006000600060006000600060004A
:102690006000600060006000600060006000E003B7
:1026A000E0030000000030003000600060006000C7
:1026B000C000C000C000C001800180018001000393
:1026C00000030003000600060000000000000000F8
:1026D000000000000000E003E0030003000300032B
:1026E00000030003000300030003000300030003D2
:1026F0000003000300030003000300030003E003E2
:10270000E003000000000000C001C001600360039E
:10271000600330063006180C180C000000000000A2
:1027200000000000000000000000000000000000A9
:102730000000000000000000000000000000000099
:102740000000000000000000000000000000000089
:10275000000000000000FFFFFFFF0000000000007D
:102760000000000000000C000C000C000C000C002D
:102770000C0000000000000000000000000000004D
:102780000000000000000000000000000000000049
:102790000000000000000000000000000000000039
:1027A000F003F8071C0C0C0C000FF00FF80C0C0CCD
:1027B0000C0C1C0FF80FF0180000000000000000C7
:1027C0000000000000001800180018001800180091
:1027D000D803F80F380C18181818181818181818E3
:1027E0001818380CF80FD803000000000000000093
:1027F00000000000000000000000000000000000D9
:10280000C003F007300E180C18001800180018004C
:10281000180C300EF007C00300000000000000009C
:102820000000000000000018001800180018001830
:10283000C01BF01F301C1818181818181818181872
:102840001818301CF01FC01B000000000000000022
:102850000000000000000000000000000000000078
:10286000C003F00F300C1818F81FF81F18001800DC
:102870003818301CF00FC0070000000000000000F6
:10288000000000000000800FC00FC000C000C000AA
:10289000F007F007C000C000C000C000C000C000CA
:1028A000C000C000C000C000000000000000000028
:1028B0000000000000000000000000000000000018
:1028C000E00DF80F180E0C0C0C0C0C0C0C0C0C0C76
:1028D0000C0C180EF80FE00D000C0C0C1C06F80781
:1028E000F00100000000180018001800180018007F
:1028F000D807F80F381C18181818181818181818AE
:102900001818181818181818000000000000000007
:10291000000000000000C000C00000000000000037
:10292000C000C000C000C000C000C000C000C000A7
:10293000C000C000C000C000000000000000000097
:10294000000000000000C000C00000000000000007
:10295000C000C000C000C000C000C000C000C00077
:10296000C000C000C000C000C000C000C000F8002F
:102970007800000000000C000C000C000C000C00A3
:102980000C0C0C060C038C01CC006C00FC009C01B0
:102990008C030C030C060C0C00000000000000006F
:1029A000000000000000C000C000C000C000C00067
:1029B000C000C000C000C000C000C000C000C00017
:1029C000C000C000C000C000000000000000000007
:1029D00000000000000000000000000000000000F7
:1029E0007C3CFF7EC7E383C183C183C183C183C1B4
:1029F00083C183C183C183C10000000000000000C7
:102A000000000000000000000000000000000000C6
:102A10009807F80F381C18181818181818181818CC
:102A200018181818181818180000000000000000E6
:102A30000000000000000000000000000000000096
:102A4000C003F00F300C1818181818181818181898
:102A50001818300CF00FC003000000000000000048
:102A60000000000000000000000000000000000066
:102A7000D803F80F380C1818181818181818181840
:102A80001818380CF80FD803180018001800180090
:102A9000180000000000000000000000000000001E
:102AA000C01BF01F301C1818181818181818181800
:102AB0001818301CF01FC01B001800180018001850
:102AC00000180000000000000000000000000000EE
:102AD000B007F003700030003000300030003000EC
:102AE0003000300030003000000000000000000026
:102AF00000000000000000000000000000000000D6
:102B0000E003F003380E180C3800F003C007000C87
:102B1000180C380EF007E003000000000000000071
:102B200000000000000000008000C000C000C000E5
:102B3000F007F007C000C000C000C000C000C00027
:102B4000C000C000C00780070000000000000000B7
:102B50000000000000000000000000000000000075
:102B600018181818181818181818181818181818E5
:102B70001818381CF01FE0190000000000000000C9
:102B80000000000000000000000000000000000045
:102B90000C18180C180C180C3006300630066003A0
:102BA00060036003C001C0010000000000000000DD
:102BB0000000000000000000000000000000000015
:102BC000C141C141C36163636363636336363636B3
:102BD00036361C1C1C1C1C1C0000000000000000E1
:102BE00000000000000000000000000000000000E5
:102BF0001C38381C300C60066003600360036003FF
:102C00006006300C381C1C3800000000000000007A
:102C100000000000000000000000000000000000B4
:102C20001830301830187018600C600CE00CC006BA
:102C3000C00680038003800380018001C001F00092
:102C40007000000000000000000000000000000014
:102C5000FC1FFC1F000C000600038001C000600088
:102C600030001800FC1FFC1F0000000000000000E6
:102C700000000000000000038001C000C000C00090
:102C8000C000C000C0006000600030006000400074
:102C9000C000C000C000C000C000C0008001000330
:102CA000000000000000800180018001800180019F
:102CB000800180018001800180018001800180010C
:102CC00080018001800180018001800180018001FC
:102CD0008001000000006000C000C0018001800190
:102CE0008001800180010003000300060003000151
:102CF000800180018001800180018001C0006000AE
:102D000000000000000000000000000000000000C3
:102D100000000000F010F81F080F00000000000085
:102D200000000000000000000000000000000000A3
:102D300000000000542D0008000000207400000076
:102D4000FC170008C82D00087400002004100000C3
:102D50000C18000800000000000000000000000047
:102D60000000000000000000000000000000000063
:102D70000000000002040608000000000102030435
:102D80000102030406070809001801400018014069
:102D900000180140001801400018014000180140CF
:102DA00000180140001801400008014000100140D7
:102DB00000140140001401400014014000140140BF
:082DC000001401400000FFFFB8
:04000005080001519D
:00000001FF
